:100000000C94C3130C94FC130C94FC130C94FC136D
:100010000C94AC320C94AC320C94AC320C94AC32E8
:100020000C94FC130C94FC130C94FC130C94FC1314
:100030000C94FC130C94B1270C94FC130C94FC133B
:100040000C94C0260C94FC130C94E7940C94FC13B1
:100050000C94BF6C0C94B56C0C94FC130C94FC13B6
:100060000C94FC130C94FC130C94FC130C94FC13D4
:100070000C94FC130C94FC130C94FC130C94FC13C4
:100080000C94FC130C94FC130C94FC134E414E493D
:100090004E495459494E46CDCCCC3D0AD7233C1746
:1000A000B7D13877CC2B329595E6241FB14F0A0093
:1000B0000020410000C84200401C4620BCBE4CCA83
:1000C0001B0E5AAEC59D74434F4D4D554E4943418D
:1000D00054494F4E0044525952554E004552524FCA
:1000E000525300494E464F004543484F004142534A
:1000F000005045544700504C4100506C6561736599
:10010000205265736574005052494E544552204840
:10011000414C5445440025533A202553004B494C4B
:100120004C45442E20005072696E746572206861DF
:100130006C7465642E206B696C6C28292063616C7B
:100140006C6564210A006563686F3A004572726FDE
:10015000723A0020440020204D32303020530020DD
:100160002844697361626C6564293A0046696C6170
:100170006D656E742073657474696E6773002020FA
:100180004D3230312058004D617820416363656CF9
:1001900065726174696F6E2028756E6974732F7350
:1001A00032290020204D3230332058004D61782014
:1001B0006665656472617465732028756E69747311
:1001C0002F73290020520020204D3230342050005F
:1001D000416363656C65726174696F6E2028756E2A
:1001E0006974732F7332292028503C7072696E74C1
:1001F0002D616363656C3E20523C7265747261636D
:10020000742D616363656C3E20543C747261766545
:100210006C2D616363656C3E2900204A0020540008
:1002200020530020204D3230352042004164766159
:100230006E6365642028423C6D696E5F7365676D0F
:10024000656E745F74696D655F75733E20533C6DB8
:10025000696E5F66656564726174653E20543C6DCD
:10026000696E5F74726176656C5F66656564726104
:1002700074653E204A3C6A756E635F6465763E290C
:10028000002E0A002E075D245A245724206E6F7416
:100290002064697361626C65642E205368617265C5
:1002A0006420776974680020496E76616C69642007
:1002B0006578747275646572200020746F6F206CAD
:1002C0006F6E6720657874727573696F6E207072D7
:1002D0006576656E7465640A0020636F6C642065E2
:1002E0007874727573696F6E2070726576656E745E
:1002F00065640A00536C6565702E2E2E00436C6990
:10030000636B20746F20526573756D652E2E2E0001
:10031000616C736F20656E61626C6564290A004EC2
:100320006F204D6F76652E00456E642066696C65A2
:10033000206C6973740A00426567696E2066696C97
:1003400065206C6973740A004E6F206D6564696185
:100350000A00534420636172642072656C656173A6
:1003600065640A00286E6F2066696C652900437514
:100370007272656E742066696C653A20004E6F7407
:10038000205344207072696E74696E670A0053448A
:10039000207072696E74696E6720627974652000DE
:1003A0002E0A0044656C6574696F6E206661696C25
:1003B00065642C2046696C653A200046696C6520AE
:1003C00064656C657465643A002569730025696D20
:1003D00020256973002569682025696D20256973CA
:1003E00000256964202569682025696D20256973C9
:1003F0000025697920256964202569682025696DB3
:1004000020256973005072696E742074696D653AB5
:1004100020006F6B006F666600E800E300DC00D52B
:1004200000C70044454255473A00416E657420417B
:1004300038204F46462E00434F4E4649475F4558A9
:10044000504F5254004D4541545041434B00434F8F
:100450004F4C45525F54454D5045524154555245BD
:10046000004348414D4245525F54454D504552412D
:100470005455524500424142595354455050494EFB
:10048000470041524353004D4F54494F4E5F4D4F2B
:1004900044455300544845524D414C5F50524F54CF
:1004A000454354494F4E00455854454E4445445FDA
:1004B0004D323000435553544F4D5F4649524D57CE
:1004C0004152455F55504C4F4144004C464E5F579A
:1004D00052495445004C4F4E475F46494C454E41AA
:1004E0004D45004155544F5245504F52545F53446F
:1004F0005F5354415455530053445F575249544538
:1005000000524550454154004D554C54495F564F9B
:100510004C554D45005344434152440050524F4DB9
:1005200050545F535550504F525400484F53545FEE
:10053000414354494F4E5F434F4D4D414E4453004C
:10054000454D455247454E43595F504152534552E0
:1005500000434153455F4C494748545F4252494725
:1005600048544E45535300544F47474C455F4C4900
:100570004748545300534F4654574152455F504FDC
:10058000574552004255494C445F50455243454EF1
:1005900054004C4556454C494E475F444154410038
:1005A0005A5F50524F42450052554E4F55540041EC
:1005B00055544F4C4556454C005052494E545F4A95
:1005C0004F420050524F4752455353004155544FEC
:1005D0005245504F52545F54454D50004155544F71
:1005E0005245504F52545F504F5300564F4C554D4B
:1005F000455452494300454550524F4D0042494EE3
:100600004152595F46494C455F5452414E5346450D
:10061000520053455249414C5F584F4E5F584F4628
:1006200046004649524D574152455F4E414D453A6D
:100630004D61726C696E20322E312E3220284D6150
:100640007220323420323032342030393A33323A68
:1006500032372920534F555243455F434F44455F3E
:1006600055524C3A6769746875622E636F6D2F4DF1
:1006700061726C696E4669726D776172652F4D614A
:10068000726C696E2050524F544F434F4C5F564529
:100690005253494F4E3A312E30204D414348494E36
:1006A000455F545950453A416E65742041382045A4
:1006B000585452554445525F434F554E543A312099
:1006C000555549443A63656465326132662D34316B
:1006D00061322D343734382D396231322D6335355E
:1006E000633632663336376666002F2F004D31345D
:1006F0003520533C696E6465783E206F7574206FB9
:10070000662072616E67652028302D31290A003F0E
:100710004A206F7574206F662072616E67652028AD
:10072000302E303120746F20302E33290A002058AB
:10073000004F4646004F4E003B200020204D617880
:100740003A2000200020204D696E3A2000203B20F6
:100750000020204D32313120530046523A002046CD
:100760006C6F773A200064697300656E0043290A54
:100770000061626C656420286D696E2074656D701F
:100780002000436F6C642065787472756465732013
:100790006172652000486F6D652025732573257390
:1007A000204669727374004F6666736574732041E6
:1007B00070706C696564004572723A20546F6F20E6
:1007C0006661722100546F6F206661722066726FDD
:1007D0006D207265666572656E636520706F696E07
:1007E000740A00454550524F4D204F4B0A004D387A
:1007F0003400446F6E65207072696E74696E672094
:1008000066696C650A004D3737004D333100496E1B
:1008100076616C69642065787472756465720A002B
:1008200020204D323036205800486F6D65206F66AD
:1008300066736574004361703A0020573A00436F55
:100840006F6C696E672E2E2E0048656174696E6745
:100850002E2E2E0045312025530020573A004265A8
:100860006420436F6F6C696E672E2E2E00426564A4
:100870002048656174696E672E2E2E00A10000006D
:100880006900A20000006300B00000000900C10080
:1008900000004100C20000004100C3000000410010
:1008A000C40000004100C50000004100C600000077
:1008B0004145C70000004300C80000004500C900D2
:1008C00000004500CD0000004900D10000004E00AE
:1008D000D50000004F00D60000004F00D7000000F8
:1008E0007800DC0000005500DD0000005900E00049
:1008F00000006100E10000006100E2000000610012
:10090000E30000006100E40000006100E500000079
:100910006100E60000006165E70000006300E80098
:1009200000006500E90000006500EA0000006500C5
:10093000EB0000006500EC0000006900ED00000025
:100940006900EE0000006900EF0000006900F1009E
:1009500000006E00F20000006F00F30000006F0066
:10096000F40000006F00F50000006F00F6000000CA
:100970006F00F80000006F00F90000007500FA0039
:1009800000007500FB0000007500FC000000750011
:10099000FD0000007900FF00000079000401000064
:1009A000410005010000610006010000430007014D
:1009B000000063000C01000043000D010000630013
:1009C0000E01000044000F0100006400110100004E
:1009D00064001901000065001A01000045001B01B8
:1009E000000065001F0100006700300100004900A1
:1009F000310100006900410100004C00420100008B
:100A00006C00430100004E00440100006E004801EC
:100A100000006E00580100005200590100007200F1
:100A20005A01000053005B01000073005F010000E9
:100A30007300600100005300610100007300650154
:100A4000000074006F01000075007C0100007A0056
:100A50007D0100005A007E0100007A009201000032
:100A60006600E30200007800222000002E001E2114
:100A70000000507822210000544D902100003C2DB0
:100A8000922100002D3EB02100000300BB21000098
:100A900004003C2200007E00482200007E3D6022CF
:100AA0000000213D612200003D00642200003C3D29
:100AB000652200003E3DF12300000700A030000049
:100AC0003D0021F301000200C2F401000500A20074
:100AD0000000EC00B0000000DF00E4000000E100D6
:100AE000F6000000EF00F7000000FD00FC00000031
:100AF000F500E3020000EB0087030000A5008F0370
:100B00000000F40098030000F2009E030000E300E0
:100B1000A3030000F600A9030000F400AC030000EA
:100B2000E000AD030000E300B1030000E000B20309
:100B30000000E200B5030000E300B8030000F2008B
:100B4000BC030000E400BE030000E300C00300009B
:100B5000F700C1030000E600C3030000E500902198
:100B600000007F00922100007E001A220000E800B1
:100B70001E220000F30088250000FF000230000064
:100B8000A1000C300000A2000D300000A3009B303B
:100B90000000DE009C300000DF00A03000003D00BF
:100BA000A1300000A700A2300000B100A330000077
:100BB000A800A4300000B200A5300000A900A630B3
:100BC0000000B300A7300000AA00A8300000B40065
:100BD000A9300000AB00AA300000B500AB30000027
:100BE000B600AC300000B6DEAD300000B700AE306D
:100BF0000000B7DEAF300000B800B0300000B8DE53
:100C0000B1300000B900B2300000B9DEB3300000EE
:100C1000BA00B4300000BADEB5300000BB00B63018
:100C20000000BBDEB7300000BC00B8300000BCDE06
:100C3000B9300000BD00BA300000BDDEBB3000009E
:100C4000BE00BC300000BEDEBD300000BF00BE30C4
:100C50000000BFDEBF300000C000C0300000C0DEBA
:100C6000C1300000C100C2300000C1DEC33000004E
:100C7000AF00C4300000C200C5300000C2DEC63084
:100C80000000C300C7300000C3DEC8300000C4004D
:100C9000C9300000C4DECA300000C500CB300000FF
:100CA000C600CC300000C700CD300000C800CE30F8
:100CB0000000C900CF300000CA00D0300000CADEFA
:100CC000D1300000CADFD2300000CB00D3300000AA
:100CD000CBDED4300000CBDFD5300000CC00D630E6
:100CE0000000CCDED7300000CCDFD8300000CD00D3
:100CF000D9300000CDDEDA300000CDDFDB3000007F
:100D0000CE00DC300000CEDEDD300000CEDFDE3095
:100D10000000CF00DF300000D000E0300000D10044
:100D2000E1300000D200E2300000D300E3300000E8
:100D3000AC00E4300000D400E5300000AD00E63047
:100D40000000D500E7300000AE00E8300000D6001B
:100D5000E9300000D700EA300000D800EB30000096
:100D6000D900EC300000DA00ED300000DB00EF309D
:100D70000000DC00F2300000A600F3300000DD00CF
:100D8000F4300000B3DEF7300000DCDEFA300000A3
:100D9000A6DEFB300000A500FC300000B000FD30F6
:100DA0000000A400074E0000FB0086510000FC007C
:100DB00043530000FA0064FF0000A40065FF000038
:100DC000A50066FF0000A60067FF0000A70068FFFF
:100DD0000000A80069FF0000A9006AFF0000AA0047
:100DE0006BFF0000AB006CFF0000AC006DFF00006B
:100DF000AD006EFF0000AE006FFF0000AF0070FF9F
:100E00000000B00071FF0000B10072FF0000B200EE
:100E100073FF0000B30074FF0000B40075FF000012
:100E2000B50076FF0000B60077FF0000B70078FF3E
:100E30000000B80079FF0000B9007AFF0000BA0096
:100E40007BFF0000BB007CFF0000BC007DFF0000BA
:100E5000BD007EFF0000BE007FFF0000BF0080FFDE
:100E60000000C00081FF0000C10082FF0000C2003E
:100E700083FF0000C30084FF0000C40085FF000062
:100E8000C50086FF0000C60087FF0000C70088FF7E
:100E90000000C80089FF0000C9008AFF0000CA00E6
:100EA0008BFF0000CB008CFF0000CC008DFF00000A
:100EB000CD008EFF0000CE008FFF0000CF0090FF1E
:100EC0000000D00091FF0000D10092FF0000D2008E
:100ED00093FF0000D30094FF0000D40095FF0000B2
:100EE000D50096FF0000D60097FF0000D70098FFBE
:100EF0000000D80099FF0000D9009AFF0000DA0036
:100F00009BFF0000DB009CFF0000DC009DFF000059
:100F1000DD009EFF0000DE009FFF0000DF00E5FF18
:100F200000005C0000000000010204040000001C3E
:100F30001C0C04040402010000000000040810005E
:100F40000000000003002D2D2D2D2D2D007C4D6166
:100F5000726C696E7C0001002D2D2D2D2D2D00252C
:100F600000503A002568753A253032687500253002
:100F70003268753A25303268750025303268752739
:100F800025303268750020002000200020003A0043
:100F90003A00001C1F11111F00000006191803134E
:100FA0000C00040E1F041C000000000E1315110E8F
:100FB00000001C10181705060500040A0A0A0A1189
:100FC000110E0C12120C00000000001F1511151F4D
:100FD000000042656400456E636C6F737572650056
:100FE0004500200025002020202020202000200077
:100FF0002020202000200020002F00E80300040310
:10100000E803000402E8030004014400760008E756
:10101000011902059A00CC00079F02D102042D019C
:101020005F01065072696E742041626F727465646C
:10103000004D32350050617573696E672E2E2E009B
:101040004D323400454550524F4D205665727369FC
:101050006F6E204572726F7200454550524F4D20A1
:10106000496E646578204572726F72004545505232
:101070004F4D20435243204572726F72003F00492A
:10108000676E6F726500526573657400496E6974AE
:1010900069616C697A6520454550524F4D0046693B
:1010A0006C2E204469612E004F6666004F6E00452D
:1010B00020696E206D6D5E33004D696E2054726143
:1010C00076656C205370656564004D696E205665C9
:1010D0006C6F63697479004D6178204020537065AE
:1010E0006564004D6178204520416363656C004D67
:1010F0006178204020416363656C005472617665BD
:101100006C20416363656C00526574726163742086
:10111000416363656C00416363656C0040207374D8
:101120006570732F6D6D00416476616E6365642038
:1011300053657474696E6773003F0043616E636545
:101140006C00496E6974004D34323800496E697420
:1011500069616C697A6520454550524F4D0046697A
:101160006C616D656E740053746570732F6D6D00E6
:101170004A756E6374696F6E2044657600416363DF
:10118000656C65726174696F6E004D617820537093
:1011900065656420286D6D2F7329005365742048A0
:1011A0006F6D65204F66667365747300436F6E667E
:1011B000696775726174696F6E003F004E6578747F
:1011C00020506F696E7400446F6E65004E657874D0
:1011D00000486F6D696E672058595A004265640077
:1011E0004E6F7A7A6C650046616E20537065656457
:1011F00000436F6E66696775726174696F6E005245
:101200006573746F72652044656661756C747300F4
:101210004C6F61642053657474696E677300537416
:101220006F72652053657474696E677300507265E0
:1012300068656174202420436F6E660041647661A6
:101240006E6365642053657474696E6773004D61E5
:10125000696E003133300035004245443A20415434
:10126000432031303447542D320052756E6177611E
:10127000792057617463683A204F4E004D617820A1
:1012800054656D7000323735004D696E2054656DC0
:101290007000350045313A20415443203130344705
:1012A000542D32005053550047656E6572696300D6
:1012B00050726F746F636F6C00312E300042617535
:1012C000640031313532303000416E657420312E8A
:1012D00035004578747275646572730031006D6114
:1012E000726C696E66772E6F726700416E6574204E
:1012F000413800323032332D30332D323200322E2D
:10130000312E32004D61726C696E00546865726DE9
:101310006973746F727300426F61726420496E6604
:101320006F005072696E74657220496E666F004D71
:1013300061696E003F004261636B0053746F70001F
:101340004D323200417474616368204D6564696197
:10135000004D3231005072696E742066726F6D20DC
:101360004D656469610052656C65617365204D650A
:101370006469610041626F7574205072696E7465B2
:101380007200436F6E66696775726174696F6E0093
:1013900054656D7065726174757265004D6F746926
:1013A0006F6E00526573756D65205072696E7400C2
:1013B00054756E650053746F70205072696E7400BE
:1013C0005061757365205072696E7400496E666F66
:1013D0002053637265656E003F0053746172742020
:1013E0005072696E740043616E63656C005072697F
:1013F0006E740043616E6E6F7420656E746572204A
:101400007375626469723A200005202E2E00045222
:10141000656672657368004D61696E002100486FF2
:1014200074656E6420746F6F20636F6C640042613A
:10143000636B0050726F63656564004D6F76652065
:101440004578747275646572004D6F74696F6E00D3
:1014500044697361626C6520537465707065727362
:10146000004D383400426564205472616D6D696EC0
:1014700067004175746F20486F6D65004732380012
:101480004D61696E00507265686561742024204268
:1014900065640050726568656174202420456E643F
:1014A0000054656D706572617475726500F600F1C7
:1014B00000ED00436F6F6C646F776E00507265686B
:1014C00065617420240046616E2053706565640078
:1014D000426564004E6F7A7A6C65004D61696E00FA
:1014E000466C6F770046616E2053706565640042FC
:1014F0006564004E6F7A7A6C6500537065656400B0
:101500004D61696E006F70656E00545249474745E2
:10151000524544003A20007A5F6D696E00795F6D34
:10152000696E00785F6D696E005265706F727469E4
:101530006E6720656E6473746F7020737461747568
:10154000730A0000000CC2000020C1000000005718
:1015500061726E696E673A20486F6D696E672042EE
:10156000756D702044697669736F72203C20310A72
:101570000002020400007F43000066430000704345
:101580000000A0400000A0400000004000005C43BC
:1015900000005C430000704300000CC2000020C14A
:1015A0000000000053657474696E67732053746F94
:1015B00072656400290A002062797465733B2063B8
:1015C0007263200053657474696E67732053746F7F
:1015D000726564202800454550524F4D20496E6980
:1015E0007469616C697A65640A0048617264636F4A
:1015F0006465642044656661756C74205365747419
:10160000696E6773204C6F616465640020286D6D9E
:10161000290020460020420020480020204D31347F
:10162000352053004D6174657269616C2068656195
:1016300074757020706172616D65746572730020DD
:10164000204D3134392043203B20556E697473207E
:10165000696E2043656C736975730A0054656D701B
:101660006572617475726520556E6974730020200F
:10167000473231203B004C696E65617220556E69BE
:10168000747300454550524F4D2064617461736915
:101690007A65206572726F722E0A00290A00206234
:1016A000797465733B2063726320002073746F72DA
:1016B00065642073657474696E67732072657472F3
:1016C0006965766564202800202863616C63756C09
:1016D0006174656429210A0020213D2000454550A0
:1016E000524F4D20435243206D69736D617463689E
:1016F000202D202873746F7265642920002053699F
:101700007A653A2000496E6465783A20000000C886
:10171000430000C84300000041000048429A99C8B5
:10172000420080C8420000C8430000C842D0070001
:1017300000D00700006400000010270000204D6169
:10174000726C696E3D563837290A00454550524F34
:101750004D2076657273696F6E206D69736D61746B
:1017600063682028454550524F4D3D0020436F751A
:101770006E7420583A0042656400453100450062AD
:101780006564002C2073797374656D2073746F70B9
:1017900070656421204865617465725F49443A2030
:1017A000004572723A204D415854454D50004D410C
:1017B0005854454D502074726967676572656400BE
:1017C0004572723A204D494E54454D50004D494E98
:1017D00054454D50207472696767657265640048AE
:1017E000656174696E67204661696C65640048656F
:1017F0006174696E67206661696C656400202F0002
:101800002042403A0020403A007C3C3E5E2B3D3F67
:101810002F5B5D3B2C2A225C005344206361726481
:10182000206F6B0A006F70656E526F6F7420666177
:10183000696C65640A00766F6C756D652E696E69FA
:1018400074206661696C65640A004E6F2053442001
:10185000636172640A000A4D3234004D3233202530
:1018600073002E0A006F70656E206661696C656496
:101870002C2046696C653A200046696C65207365CA
:101880006C65637465640A002053697A653A2000C8
:1018900046696C65206F70656E65643A2000454E40
:1018A0004420535542524F5554494E450A00222078
:1018B000706F73002220706172656E743A2200535B
:1018C0005542524F5554494E452043414C4C20748B
:1018D00061726765743A220053756263616C6C20B3
:1018E0004F766572666C6F770045786365656465F1
:1018F00064206D617820535542524F5554494E45EE
:101900002064657074683A0057726974696E672064
:10191000746F2066696C653A2000667265736800B2
:10192000646F696E67002066696C653A20004E6FCF
:101930007720002F6175746F25632E67006D6172CB
:101940006C696E66772E6F7267006D61726C696E7E
:1019500066772E6F726700322E312E3200322E31B2
:101960002E3200006D61726C696E66772E6F726741
:10197000006D61726C696E66772E6F72670020323F
:101980002E312E32001000C90210012C014001221C
:101990000170011801B0010E01F00104015002FABA
:1019A00000B002F0003003E600D003DC009004D267
:1019B000007005C800A006BE000008B400B009AA67
:1019C00000D00BA000600E960060118C0000158204
:1019D0000020197800C01D6E00A0226400B0275AB4
:1019E00000902C500000314600E0343C00103832AA
:1019F00000903A2800603C1E00A03D1400803E0A82
:101A000000203F00002020506C616E6E65724275B0
:101A10006666657242797465733A20002046726585
:101A200065204D656D6F72793A200020436F6D70AF
:101A3000696C65643A204D61722032342032303254
:101A4000340A00204C6173742055706461746564BD
:101A50003A20323032332D30332D3232207C204147
:101A60007574686F723A20284564204C616B652C50
:101A700020416E6574204138290A004D61726C69FD
:101A80006E20322E312E320A0020536F6674776139
:101A900072652052657365740A002057617463682B
:101AA000646F672052657365740A002042726F7715
:101AB0006E206F75742052657365740A0020457836
:101AC0007465726E616C2052657365740A00506FA4
:101AD00077657255700A0073746172740A00473238
:101AE000385859004D31303031006F6B00657272DB
:101AF0006F722077726974696E6720746F206669EF
:101B00006C650A00446F6E6520736176696E6720AC
:101B100066696C652E0A00456E6473746F7073009D
:101B2000255320256320256320256320256300207D
:101B30005A3A0020593A0020583A00656E6473748E
:101B40006F7073206869743A200024F404D9201B54
:101B5000C40C5C0E9804C4095F0265077101F405AA
:101B6000F900FB04B30048048700C103690058036F
:101B7000550003034500BE023A00840231005302BF
:101B80002A002902250004022000E4011C00C801EB
:101B90001900AF01170098011400840113007101AE
:101BA00010006101100051010E0043010D003601CB
:101BB0000B002B010B0020010B00150109000C018B
:101BC000090003010800FB000800F3000800EB0017
:101BD0000700E4000600DE000600D8000600D20080
:101BE0000600CC000500C7000500C2000500BD00CE
:101BF0000400B9000400B5000400B1000400AD0009
:101C00000400A9000400A5000300A20003009F0037
:101C100004009B000300980003009500020093005D
:101C20000300900003008D0002008B000300880079
:101C300002008600020084000300810002007F0091
:101C400002007D0002007B000200790002007700A4
:101C500001007600020074000200720001007100B1
:101C600002006F0002006D0001006C0002006A00BB
:101C700001006900020067000100660001006500C4
:101C800001006400020062000100610001006000C8
:101C900001005F0002005D0001005C0001005B00CC
:101CA00001005A00010059000100580001005700CE
:101CB00001005600010055000100540001005300CE
:101CC00000005300010052000100510001005000CB
:101CD00001004F0001004E0000004E0001004D00C9
:101CE00001004C0001004B0000004B0001004A00C5
:101CF00001004900010048000000480001004700C1
:101D000001004600000046000100450000004500BB
:101D100001004400010043000000430001004200B4
:101D200000004200010041000000410001004000AD
:101D300001003F0000003F0001003E0000003E00A7
:101D400001003D0000003D0001003C0000003C009F
:101D500000003C0001003B0000003B0001003A0095
:101D600000003A000100390000003900010038008D
:101D70000000380000003800010037000000370084
:101D8000010036000000360000003600010035007A
:101D90000000350000003500010034000000340070
:101DA0000000340001003300000033000000330065
:101DB000010032000000320000003200010031005A
:101DC0000000310000003100010030000000300050
:101DD0000000300001002F0000002F0000002F0045
:101DE00000002F0001002E0000002E0000002E0039
:101DF00001002D0000002D0000002D0000002D002E
:101E000001002C0000002C0000002C0000002C0021
:101E100001002B0000002B0000002B0000002B0015
:101E200001002A0000002A0000002A0000002A0009
:101E300001002900000029000000290000002900FD
:101E400000002900010028000000280000002800F0
:101E500000002800000028000100270000002700E3
:101E600000002700000027000000270001002600D6
:101E700000002600000026000000260000002600CA
:101E800001002500000025000000250000002500BD
:101E900000002500000025000100240000002400AF
:101EA00000002400000024000000240001002300A2
:101EB0000000230000002300000023000000230096
:101EC0000000230000002300010022000000220087
:101ED000000022000000220000002200000022007A
:101EE000010021000000210000002100000021006D
:101EF000000021000000210000002100010020005E
:101F00000000200000002000000020000000200051
:101F100000002000000020000000200001001F0041
:101F200000001F0000001F0000001F0000001F0035
:101F300000001F0000001F0001001E0000001E0026
:101F400000001E0000001E00000024F4D43050C326
:101F50008E20C2A24017828B7011127A910D816C73
:101F6000D90AA861E108C7586607615143061E4BAC
:101F70005D05C145A7041A411104093D9803713953
:101F800031034036DB0265339102D4305402802E97
:101F90001D02632CEE01752AC501B028A00110278F
:101FA00081018F2564012B244B01E0223401AC21F7
:101FB0001F018D200D01801FFC00841EED00971D68
:101FC000DF00B81CD200E61BC600201BBC00641A50
:101FD000B200B219A8000A19A0006A189900D11716
:101FE000910040178B00B516840031167E00B315A2
:101FF00079003A157300C7146F0058146A00EE1385
:1020000066008813630025135E00C7125B006C1224
:10201000570015125400C111510070114F002111C9
:102020004B00D61049008D104700461044000210A6
:102030004200C00F4000800F3E00420F3C00060FE0
:102040003B00CB0E3800930E37005C0E3500270E98
:102050003400F30D3200C10D3100900D3000600DE1
:102060002E00320D2D00050D2C00D90C2B00AE0CCE
:102070002900850C29005C0C2700350C27000E0C6C
:102080002600E80B2400C40B2400A00B23007D0BCA
:1020900023005A0B2100390B2100180B2000F80AED
:1020A0001F00D90A1E00BB0A1E009D0A1D00800ADF
:1020B0001D00630A1C00470A1B002C0A1B00110AA2
:1020C0001A00F7091A00DD091900C4091900AB0943
:1020D0001900920917007B091800630917004C09C1
:1020E000160036091600200916000A091500F50821
:1020F0001500E0081400CC081400B8081400A40867
:102100001400900813007D0812006B081300580893
:1021100012004608120034081100230811001208AA
:10212000110001081100F0071000E0071000D007AF
:102130001000C0071000B0070F00A10710009107A2
:102140000E0083070F0074070F0065070E00570786
:102150000E0049070E003B070D002E070E0020075A
:102160000D0013070D0006070D00F9060C00ED0623
:102170000D00E0060C00D4060C00C8060C00BC06DE
:102180000C00B0060C00A4060B0099060C008D068E
:102190000B0082060B0077060B006C060B00610635
:1021A0000A0057060B004C060A0042060A003806D1
:1021B0000A002E060A0024060A001A060A00100663
:1021C000090007060A00FD050900F4050900EB05F2
:1021D0000900E2050900D9050900D0050900C70575
:1021E0000900BE050900B5050800AD050800A505F4
:1021F00009009C050800940508008C05080084056A
:1022000008007C050800740508006C0507006505DA
:1022100008005D050700560508004E050700470544
:1022200007004005080038050700310507002A05AA
:102230000700230507001C050600160507000F050B
:1022400007000805060002050700FB040600F50468
:102250000700EE040600E8040600E2040700DB04C1
:102260000600D5040600CF040600C9040600C30416
:102270000600BD040600B7040600B1040500AC0466
:102280000600A6040600A00405009B0406009504B1
:102290000500900406008A040500850405008004FA
:1022A00006007A04050075040500700405006B043F
:1022B000050066040500610405005C040500570480
:1022C0000500520405004D040500480405004304C0
:1022D00005003E0404003A040500350405003004FE
:1022E00004002C04050027040400230405001E0438
:1022F00004001A04040016040500110404000D046F
:102300000400090405000404040000040400FC03A4
:102310000400F8030400F4030400F0030400EC03D9
:102320000400E8030400E4030400E0030400DC0309
:102330000400D8030400D4030400D0030400CC0339
:102340000400C8030300C50303003A2E00007B1DF0
:102350000000181100004A090000DB0400007C02A4
:10236000000041010000A10000004D6F76652024AF
:102370006D6D00302E303235004D6F766520302E79
:10238000316D6D004D6F766520316D6D004D6F764E
:10239000652031306D6D004D6F7665204178697331
:1023A000004D6F7665202A004D6F76652040005005
:1023B00072696E742066726F6D204D65646961008C
:1023C000200000002200250028002B000000210032
:1023D000240027002A000202020202020202040470
:1023E00004040404040403030303030303030101BB
:1023F00001010101010101020408102040800102D5
:102400000408102040800102040810204080804011
:10241000201008040201200020002000486F6D6990
:102420006E67204661696C656400FFFFFF43616E63
:102430006E6F74206F70656E2073756264697220B0
:1024400000220A00556E6B6E6F776E20636F6D6DA4
:10245000616E643A202200204500205A0020590075
:1024600020204D39322058005374657073207065F8
:102470007220756E6974004D6564696120496E73E0
:10248000657274656400000000010200090A000022
:102490000000040308070000000000000000000026
:1024A000000000000000746F6F206D756368206984
:1024B0006E6163746976652074696D65202D206393
:1024C000757272656E7420636F6D6D616E643A2013
:1024D000002121204B494C4C2063617573656420B9
:1024E000627920004D3131322053687574646F7702
:1024F0006E0053544F505045442E20005072696E68
:102500007465722073746F707065642064756520E3
:10251000746F206572726F72732E20466978207412
:102520006865206572726F7220616E6420757365D4
:10253000204D39393920746F20726573746172745B
:102540002E202854656D70657261747572652069FE
:10255000732072657365742E20536574206974202E
:1025600061667465722072657374617274696E67F6
:10257000290A004E6F20436865636B73756D207781
:10258000697468206C696E65206E756D6265722C69
:10259000204C617374204C696E653A20004D3239CD
:1025A000004E6F20436865636B73756D20776974A7
:1025B00068206C696E65206E756D6265722C204CAA
:1025C000617374204C696E653A2000636865636BC3
:1025D00073756D206D69736D617463682C204C6137
:1025E0007374204C696E653A20004C696E65204E0C
:1025F000756D626572206973206E6F74204C617313
:1026000074204C696E65204E756D6265722B312C9D
:10261000204C617374204C696E653A20004D313155
:10262000300053657269616C207374617475732036
:102630006D69736D617463680A005344207265614B
:1026400064206572726F720A00DB0FC93F45BCDA05
:102650003F8FB30240FCF0274056946140FE4B9BF5
:102660004084A5D840E0231841346A5641E8599780
:102670004164DBD5416E271742B4B75542CE1A9755
:1026800042C8AED542B5885A43D40684BFA65FA7D8
:10269000BF7443E0BF10B11AC01C2C58C0E8F697B5
:1026A000C0B849D6C04E4E17C124D355C180249717
:1026B000C1A0B5D5C1121A17C244AE55C27817973A
:1026C000C26CACD5C267885AC320746F6F206C6F20
:1026D0006E6720657874727573696F6E20707265AD
:1026E00076656E7465640A0020636F6C642065789B
:1026F00074727573696F6E2070726576656E74653D
:10270000640A006F6B0A00526573656E643A2000BC
:1027100020453A00205A3A0020593A00583A0045DC
:1027200072726F722077726974696E6720746F209D
:10273000454550524F4D210A00544845524D414C99
:102740002052554E4157415900546865726D616C75
:102750002052756E6177617900416E657420413851
:102760002052656164792E005072696E74696E67DB
:102770002E2E2E005072696E742050617573656440
:10278000000036B99CC011241FBECFEFD0E4DEBFDD
:10279000CDBF84B78093C91114BE0FB6F894A89525
:1027A00080916000886180936000109260000FBE8D
:1027B00012E0A0E0B1E0E8E0F8E901E00BBF02C000
:1027C00007900D92A23BB107D9F721E1A2EBB2E04D
:1027D00001C01D92A93CB207E1F713E1C2ECD3E1BD
:1027E00004C02197FE010E948DC9C13CD107C9F7E1
:1027F0000E9434BA0C94F8CB0C9400000F931F93F2
:10280000CF93DF93CDB7DEB760970FB6F894DEBFF6
:102810000FBECDBF8C01DC01ED91FC910280F381F4
:10282000E02DBE016F5F7F4F0995882309F464C0D6
:102830008981807CC9F56F81637070E0762F66278F
:10284000770F770F8885B4E08B9FC0011124682B28
:10285000792B89858295869586958370682B6F5F25
:102860007F4F90E080E02A852370220F3B8537FB65
:10287000332730F9232B3E813F70230F3327331F3B
:102880002750310904C0660F771F881F991F2A95AA
:10289000D2F760960FB6F894DEBF0FBECDBFDF91C2
:1028A000CF911F910F910895803419F56885669531
:1028B000669570E090E080E0CB01772766272A8557
:1028C000622B098510E0102F0027012E000C220B2F
:1028D000330B602B712B822B932B6F5F7F4F8F4FAE
:1028E0009F4F4AE0660F771F881F991F4A95D1F7BF
:1028F000D0CF8BE0F801848360E070E0CB01C9CFDA
:10290000FC0182810895CF93DF93C0910B04D09195
:102910000C0481E0CE31D105E4F020E030E040E06D
:102920005FE360910704709108048091090490911D
:102930000A040E94A9C90E9488CA6C1B7D0B77FFFC
:1029400003C071956195710981E0633071050CF0E8
:1029500080E0DF91CF910895FC0190E1A9EDB3E013
:1029600001900D929A95E1F70895AF92BF92CF92A0
:10297000DF92EF92FF920F931F93CF93DF93C6EEF8
:10298000D4E00AEB14E086EFA82E84E0B82EC12C28
:10299000D12C7601C39469917991899199910E9482
:1029A00019C5288939894A895B890E947AC50E949C
:1029B0008DCAF80161937193819391938F01C6162B
:1029C000D706E806F90610F46B017C01AC16BD06CB
:1029D00011F76FEF7FEFCB01A70196010E94F0C8BE
:1029E0002093CA043093CB044093CC045093CD047D
:1029F000DF91CF911F910F91FF90EF90DF90CF90DB
:102A0000BF90AF900895CF92DF92EF92FF928091A6
:102A10007D03882309F457C0C0907903D0907A03CE
:102A2000E0907B03F0907C0320E030E0A901C70137
:102A3000B6010E9415C5882309F445C020E030E0A6
:102A400040E05FE3C701B6010E947AC59B01AC017B
:102A50000E947AC52BED3FE049E450E40E947AC51C
:102A60009B01AC0160E070E080E89FE30E9420CA17
:102A70006B017C01C0927303D0927403E0927503E2
:102A8000F092760360910D0170910E01072E000CFB
:102A9000880B990B0E941BC52AE037ED43E25CE3EB
:102AA0000E947AC5A70196010E947AC560934A01E7
:102AB00070934B0180934C0190934D01FF90EF90E8
:102AC000DF90CF900895C12CD12C80E8E82E8FE3C1
:102AD000F82ED0CFCF93DF9324E0829FC001112442
:102AE000EC01C05AD14FFC01E35CFB4F895A9C4F6B
:102AF000DC012D913D914D915C91608171818281CC
:102B000093810E94A9C9688379838A839B83DF911B
:102B1000CF910895CF92DF92EF92FF92FC01C08097
:102B2000D180E280F38020E030E0A901C701B60146
:102B30000E9415C587FF68C0C701B601905820E004
:102B400030E040E251E40E947AC520E030E040EA03
:102B500050E40E94A9C920E030E040E251E40E9424
:102B600020CA0E9488CA9B0160E22031F7E23F0739
:102B700030F0C90160E177E20E9466C9605D609350
:102B80003703283E83E0380708F445C0C90168EEE2
:102B900073E00E9466C9CB016AE070E00E9466C9DA
:102BA000805D8093380380E22436310558F0C901F6
:102BB00064E670E00E9466C9CB016AE070E00E94A2
:102BC00066C9805D8093390380E22A30310558F070
:102BD000EAE0F0E0C901BF010E9466C9CB01BF0174
:102BE0000E9466C9805D80933A03C9016AE070E083
:102BF0000E9466C9805D80933B0387E393E0FF906A
:102C0000EF90DF90CF90089520E030E040E251E473
:102C1000C701B60198CF80E2C4CF8F929F92AF9246
:102C2000BF92CF92DF92EF92FF92FC01C080D180E1
:102C3000E280F38020E030E040E251E4C701B601D9
:102C40000E947AC520E030E040E251E40E947AC55B
:102C50004B015C0120E030E0A901C701B6010E94F0
:102C600015C520E030E040EA50E487FF04C020E0D2
:102C700030E040EA50ECC501B4010E94A9C920E04F
:102C800030E040E251E40E9420CA0E9488CA9B01C1
:102C90008BE237FF05C022273327261B370B8DE237
:102CA00080933603C90168EE73E00E947AC9CB01B4
:102CB000EAE0F0E0BF010E947AC9805D80933703AB
:102CC000C90164E670E00E947AC9CB01BF010E948D
:102CD0007AC9805D80933803C901BF010E947AC917
:102CE000282FCB01BF010E947AC9805D80933903F0
:102CF0008EE280933A03205D20933B0386E393E0CA
:102D0000FF90EF90DF90CF90BF90AF909F908F900B
:102D100008959C0197FF26C0EE27FF27E81BF90BBB
:102D20002D398FEF38070CF05DC08DE280933803AA
:102D3000CF0164E670E00E947AC9CB012AE030E05E
:102D4000B9010E947AC9805D80933903CF01B9012E
:102D50000E947AC9CB01B9010E947AC9805D809333
:102D60003A032AC0283E83E03807B4F1C90168EE6F
:102D700073E00E947AC9CB01EAE0F0E0BF010E9453
:102D80007AC9805D80933803C90164E670E00E94CF
:102D90007AC9CB01BF010E947AC9805D8093390353
:102DA000C901BF010E947AC9CB01BF010E947AC943
:102DB000805D80933A03F901CF016AE070E00E94E0
:102DC0007AC9805D80933B0388E393E008958DE2A8
:102DD00037FDC5CF80E2C3CFF90180E2243631054B
:102DE0000CF0A4CF80E28093380380933903EA305B
:102DF000F1056CF38DE237FF80E280933903CF0158
:102E00006AE070E00E947AC9605D60933A03D4CFB3
:102E10009C01EAE0F0E0BF010E947AC9805D8093E6
:102E20003B032A303105CCF0CB01BF010E947AC9A7
:102E3000805D80933A032436310594F0C90164E63D
:102E400070E00E947AC9CB01BF010E947AC9805DFF
:102E50008093390389E393E008958BE393E0089529
:102E60008AE393E008959C0197FD2DC080E224360B
:102E700031055CF0C90164E670E00E947AC9CB01BB
:102E80006AE070E00E947AC9805D8093390380E235
:102E90002A3031055CF0EAE0F0E0C901BF010E9490
:102EA0007AC9CB01BF010E947AC9805D80933A0341
:102EB000C9016AE070E00E947AC9805D80933B039B
:102EC00089E393E008953195219531098DE2DDCFB5
:102ED00024E6829FC001112481589F4F6FEF70E05C
:102EE0000E947AC9262F81E3643609F080E280933C
:102EF000380390E22A3040F03AE0822F632F0E949C
:102F00004DC90E944DC9905D90933903822F6AE0AC
:102F10000E944DC9905D90933A0385E280933B03F4
:102F200088E393E0089560910D0170910E01072EE2
:102F3000000C880B990B0E941BC52AE037ED43E279
:102F40005CE30E947AC52091730330917403409131
:102F50007503509176030E947AC560934A0170937D
:102F60004B0180934C0190934D010895809173041F
:102F7000811104C0809177048093D204089580E485
:102F800093E190934A04809349040895CF93DF938B
:102F9000EC01CB01BA010E941BC50E9488CA79834B
:102FA0006883DF91CF9108950E941BC50E9488CA53
:102FB000CB0159CFCF93DF93EC01CB01BA010E9433
:102FC0001BC529EC38EC48EC5EE30E9420CA20E0E7
:102FD00030E040E05FE30E94A9C90E948DCA688387
:102FE000DF91CF9108950E941BC529EC38EC48EC85
:102FF0005EE30E9420CA20E030E040E05FE30E94F0
:10300000A9C90E948DCA862F63CFE091730486E020
:10301000E802F0011124E95AFB4F8091770490E017
:10302000958384830895CF93DF9300D000D0CDB7EC
:10303000DEB70E948DCA0E9419C569837A838B838B
:103040009C83CE01019666DD0F900F900F900F903C
:10305000DF91CF9108958F929F92AF92BF92CF92BE
:10306000DF92EF92FF92CF936B017C0120E030E082
:10307000A9010E9415C587FDC3C06DEB77E386E00B
:1030800095E3A70196010E94A9C96B017C0120E08C
:1030900030E0A9010E9415C587FFB7C0C701B6017E
:1030A000905820E030E040E251E40E947AC520E0F0
:1030B00030E040E251E40E947AC520E030E040EA8E
:1030C00050E40E94A9C920E030E040E251E40E94AF
:1030D00020CA0E9488CA6B017C0160E280EAC8169F
:1030E00086E8D80681E0E806F1048CF0C701B60155
:1030F00020EA36E841E050E00E9412C9CA01B90155
:103100002AE030E040E050E00E9412C9605D609328
:10311000350360E280E1C81687E2D806E104F104D5
:103120008CF0C701B60120E137E240E050E00E9498
:1031300012C9CA01B9012AE030E040E050E00E9423
:1031400012C9605D6093360360E288EEC81683E0C2
:10315000D806E104F1048CF0C701B60128EE33E093
:1031600040E050E00E9412C9CA01B9012AE030E0F3
:1031700040E050E00E9412C9605D6093370360E256
:1031800084E6C816D104E104F1048CF0C701B6014D
:1031900024E630E040E050E00E9412C9CA01B901C3
:1031A0002AE030E040E050E00E9412C9605D609388
:1031B00038038AE0882E912CA12CB12CC701B601CE
:1031C000A50194010E9412C9C62FCA01B901A50127
:1031D00094010E9412C9605D609339038EE280936E
:1031E0003A03C05DC0933B0385E393E0CF91FF902A
:1031F000EF90DF90CF90BF90AF909F908F90089509
:103200006DEB77E386E095EB3CCF20E030E040E2E9
:1032100051E4C701B60149CFCF92DF92EF92FF92FE
:10322000CF93DF9300D000D0CDB7DEB76B017C0128
:1032300020E030E0A9010E9415C587FD1AC06DEBA2
:1032400077E386E095E3A70196010E94A9C9698307
:103250007A838B839C83CE0101965CDC0F900F9068
:103260000F900F90DF91CF91FF90EF90DF90CF9074
:1032700008956DEB77E386E095EBE5CF8F929F9213
:10328000AF92BF92CF92DF92EF92FF92CF936B01FA
:103290007C0120E030E0A9010E9415C587FD93C0A4
:1032A0006DEB77E386E095E3A70196010E94A9C93B
:1032B0006B017C0120E030E040E251E40E947AC5DD
:1032C00020E030E04AE754E40E947AC54B015C01FB
:1032D00020E030E0A901C701B6010E9415C520E039
:1032E00030E040EA50E487FF04C020E030E040EAEC
:1032F00050ECC501B4010E94A9C920E030E040E2D1
:1033000051E40E9420CA0E9488CA6B017C01C1144A
:10331000D104E104F10409F45BC0F7FE59C0F09454
:10332000E094D094C094C11CD11CE11CF11C8DE22E
:1033300080933603C701B60128EE33E040E050E049
:103340000E9412C98AE0882E912CA12CB12CCA01AE
:10335000B901A50194010E9412C9605D6093370311
:103360008EE280933803C701B60124E630E040E0E6
:1033700050E00E9412C9CA01B901A50194010E943E
:1033800012C9605D60933903C701B601A5019401BC
:103390000E9412C9C62FCA01B901A50194010E9459
:1033A00012C9605D60933A03C05DC0933B0386E33E
:1033B00093E0CF91FF90EF90DF90CF90BF90AF90D0
:1033C0009F908F9008956DEB77E386E095EB6CCF3F
:1033D00080E2AECFCF93DF93EC01CB01BA010E9424
:1033E0001BC520E030E040E251E40E9420CA68831F
:1033F00079838A839B83DF91CF9108950E941BC5B7
:1034000020E030E040E251E40E9420CA24CECF9375
:10341000DF93EC01CB01BA010E941BC52AE037ED16
:1034200043E25DE30E9420CA0E948DCA68837983CB
:103430008A839B83DF91CF9108950E941BC52AE068
:1034400037ED43E25DE30E9420CAEDCDCF93DF93D9
:10345000EC01CB01BA010E941BC52AE037ED43E223
:103460005DE30E9420CA688379838A839B83DF910E
:10347000CF9108950E941BC52AE037ED43E25DE33A
:103480000E9420CAC9CECF93DF93EC01CB01BA01D1
:103490000E941BC5688379838A839B83DF91CF91C8
:1034A00008950E941BC5B8CECF93DF93EC01CB01EA
:1034B000BA010E941BC520E030E04AE754E40E94B4
:1034C00020CA688379838A839B83DF91CF91089593
:1034D0000E941BC520E030E04AE754E40E9420CA65
:1034E000CDCE43CA42CA41CA40CAFC018491089564
:1034F000FC0180810895AF92BF92CF92DF92EF924C
:10350000FF920F931F93CF93DF93EC015B018A012E
:10351000FB01099587FD16C0C82ED12CF12CE12C9A
:103520002196F801C082D182E282F382CE01DF913E
:10353000CF911F910F91FF90EF90DF90CF90BF90B0
:10354000AF900895982F907E903CA9F48F7190E0F1
:10355000B0E0A0E06C017D0156E0CC0CDD1CEE1C5F
:10356000FF1C5A95D1F7CE010196F50109958F738D
:10357000C82A2296D6CF982F907F903E11F58F7053
:1035800090E0B0E0A0E06C017D0136E0CC0CDD1CE9
:10359000EE1CFF1C3A95D1F7CE010196F501099575
:1035A0008F73C82A46E0CC0CDD1CEE1CFF1C4A952C
:1035B000D1F7CE010296F50109958F73C82A23969B
:1035C000B0CF982F987F903F79F5877090E0B0E06A
:1035D000A0E06C017D0186E0CC0CDD1CEE1CFF1C24
:1035E0008A95D1F7CE010196F50109958F73C82A06
:1035F00096E0CC0CDD1CEE1CFF1C9A95D1F7CE0199
:103600000296F50109958F73C82A26E0CC0CDD1CC3
:10361000EE1CFF1C2A95D1F7CE010396F501099502
:103620008F73C82A24967DCF982F907C903841F4D0
:10363000807C803869F42196CE01F5010995F8CF98
:103640008E7F8D3F28F02196CE01F5010995F8CFA8
:10365000C12CD12C760165CFCF93DF93C091540458
:10366000D091550481E0CE31D105E4F020E030E086
:1036700040E05FE3609150047091510480915204E6
:10368000909153040E94A9C90E9488CA6C1B7D0BAB
:1036900077FF03C071956195710981E06330710511
:1036A0000CF080E0DF91CF91089590E080E00895E4
:1036B0002091BD02833021F425FD0CC024FD0CC0F7
:1036C00030E0A90102C0559547958A95E2F7CA01F5
:1036D0008170089581E0089580E008958091D80276
:1036E00084FD0BC08091DA0287FD07C09091DB0258
:1036F000937081E019F480E0089581E008952FEB44
:10370000280F2A3108F047C0E22FF0E08091D8025C
:103710009091D902A091DA02B091DB0204C0B69573
:10372000A795979587952A95D2F780FD02C081705D
:103730000895E254FD4FE081EE2341F180919E0413
:1037400090919F04E80FF92FF11D808190ED980F63
:103750009A3030F08E3251F4818180538A3098F45F
:10376000F093B602E093B50281E008958D3211F036
:103770008B3249F4818190ED980F9A3088F38E3224
:1037800011F48281EACFF0E0E0E0EACF1092B602D5
:103790001092B502E9CF80E00895CF93DF9385E4DE
:1037A000AEDF882309F188E04091D8025091D90218
:1037B0006091DA027091DB02972F9170C92F90E02F
:1037C000D92FCC0FDD1F71FB222720F930E0220F0B
:1037D000331F220F331FC22B67FB442740F9C42B32
:1037E0008C2BDF91CF91089580E0DECF88DF882396
:1037F00041F081E02091B5023091B602232B09F40B
:1038000080E008958091960E813069F090916E105D
:1038100092FB882780F992FF07C097FB882780F9E1
:1038200091E08927089581E0089580912B0F909170
:103830002C0F891B8F7009F4E5CF81E008958EBDB0
:103840000DB407FEFDCF0895909164009B7F909387
:103850006400982F906A96959CBD80FD03C091E00E
:10386000863009F490E09DBD0895CF93DF93EC017D
:10387000462F41706C857D858E859F850E948A9735
:10388000882351F0888920E2829FC00111248B5A3D
:10389000934FDF91CF91089590E080E0FACFCF93DE
:1038A000DF93C0910B04D0910C04209729F1609113
:1038B0000704709108048091090490910A040E9401
:1038C00088CA6E5F7F4F24976C177D07ACF47093A6
:1038D000FE036093FD030E940194605C73468F4F6A
:1038E0009F4F6093FF0370930004809301049093B3
:1038F0000204DF91CF9108951092FF03109200040B
:103900001092010410920204F4CFC9CF0F931F93B9
:103910008091960E813019F50E9401940091410327
:10392000109142032091430330914403601B710BBB
:10393000820B930B28EE33E040E050E00E94F0C889
:1039400060913D0370913E0380913F03909140034D
:10395000620F731F841F951F1F910F91089560912F
:103960004503709146038091470390914803D6CF59
:10397000CF92DF92EF92FF92CF93C82F0E940194D3
:103980006B017C0124EA30E74DE75FE360910701BA
:10399000709108018091090190910A010E9415C55A
:1039A00087FD18C08AEF90E0A0E0B0E08C0D9D1D6F
:1039B000AE1DBF1D80938D0490938E04A0938F0441
:1039C000B0939004C0934001CF91FF90EF90DF90AF
:1039D000CF90089580E090E0DC01E8CFCF92DF92B5
:1039E000EF92FF920F931F930E9401940091EA02BD
:1039F0001091EB022091EC023091ED026B017C0101
:103A0000C01AD10AE20AF30A9701860137FD11C0F4
:103A10002091E90220952093E9026A547C4F8F4F50
:103A20009F4F6093EA027093EB028093EC029093B5
:103A3000ED0281E09091E902911101C080E01F91B7
:103A40000F91FF90EF90DF90CF900895CF93DF9389
:103A5000C0915404D0915504209729F160915004ED
:103A60007091510480915204909153040E9488CA2D
:103A70006E5F7F4F24976C177D07ACF47093EF0354
:103A80006093EE030E940194605E70448D4F9F4FDF
:103A90006093F0037093F1038093F2039093F30328
:103AA000DF91CF9108951092F0031092F1031092DC
:103AB000F2031092F303F4CFCF93DF93EC018D81E7
:103AC000C3DE60E08B81DF91CF910C949C9261E02A
:103AD000FC0183810E949C928FEFB1CE0F931F93C4
:103AE000CF938C01E9DF0E94C794C82F882361F02F
:103AF0008DEFA5DE0E94C794C82FC801E8DF8C2F88
:103B0000CF911F910F91089582E1F8018483F5CF41
:103B100040917E0321E042276CE070E00C94928C8F
:103B200040917E0321E0422764E070E00C94928C87
:103B300040917E0321E0422761E070E00C94928C7A
:103B400040917E0321E0422761E070E00C94928C6A
:103B500040917E0321E0422768E070E00C94928C53
:103B600040917E0321E042276CE070E00C94928C3F
:103B700041E061E070E00C94928C40917E0321E082
:103B800042270C94928C6CE070E00C949A9364E061
:103B900070E00C949A9361E070E00C949A9361E069
:103BA00070E00C949A936CE070E00C949A930F93ED
:103BB0001F93CF93DF930AEF14E0C3EDD4E0F80135
:103BC00021913191419151918F0160E070E080E845
:103BD0009FE30E9420CA6993799389939993F4E0B3
:103BE000C33EDF0761F70E94E18DDF91CF911F9106
:103BF0000F910C94B514DBCFDACFCF93DF9300D0C5
:103C000000D0CDB7DEB719821A821B821C82AE01AA
:103C10004F5F5F4FBC018FE491E00E9472B50F903F
:103C20000F900F900F90DF91CF91089580E090E07A
:103C3000A0EAB0E48093570190935801A0935901F2
:103C4000B0935A0188E292E0D8DFE091340380E03B
:103C500090E0ACEDB2E4E43009F448C080E090E0DC
:103C6000A0EFB1E480934F0190935001A0935101D4
:103C7000B09352018093530190935401A093550146
:103C8000B0935601EE0FFF0BE85FFD4F80819181ED
:103C90008330910539F184309105C9F1029761F4BF
:103CA00080E090E0AEE3B3E480934F019093500145
:103CB000A0935101B093520180E192E09EDF1092F7
:103CC0005701109258011092590110925A0188E23E
:103CD00092E093DF809134038F5F8530ECF4809322
:103CE0003403089580E090E0AEE3B3E480934F01A5
:103CF00090935001A0935101B093520180935301CE
:103D000090935401A0935501B0935601D5CF80E014
:103D100090E0AEE3B3E4F2CF1092340308956091E3
:103D200077048FEF0C94B4B880917704682F0C94CB
:103D3000B4B86FEF809177040C94B4B86CEA74E473
:103D400082E00C943AB76EEA74E481E00C943AB7DE
:103D500060EB74E480E00C943AB76CE572E483E0C5
:103D60000C943AB7809164108823D1F081508093ED
:103D70006410EBEFFEE0882351F08150990B2BE1AA
:103D8000289FF001299FF00D1124EA5AF04F8BE192
:103D9000A0EEBEE001900D928A95E1F70E944E964A
:103DA00020916410211105C080916E108064809371
:103DB0006E1081E090E0A0E0B0E0211103C080E04F
:103DC00090E0DC018093920490939304A093940478
:103DD000B09395041092740481E080938A0483E088
:103DE00080934E010895109274040C941999CF9207
:103DF000DF92EF92FF920F931F93CF93DF93CDB794
:103E0000DEB728970FB6F894DEBF0FBECDBF8E0188
:103E10000F5F1F4FD80130E020E0FB01E20FF31FDE
:103E2000E491ED932F5F3F4F28303105B1F7877054
:103E300098E0899FB001112460648FE39FE00E94A5
:103E4000319583E790E00197F1F77801E8E0EE0E15
:103E5000F11C8BE9C82ED12CF80161918F018FE301
:103E60009FE00E94F988C6010197F1F7E016F1067C
:103E700099F728960FB6F894DEBF0FBECDBFDF913D
:103E8000CF911F910F91FF90EF90DF90CF90089509
:103E9000CF92DF92EF92FF920F931F93CF93DF9316
:103EA00000D000D000D0CDB7DEB78A0146E0469FF3
:103EB0009001479F300D1124BC01620F731F46E033
:103EC00050E0CE0101960E943EC4C980DA80EB80AA
:103ED000FC80F80140815181628173818FEF9FEFF7
:103EE000C416D506E606F70640F081E090E04C15D2
:103EF0005D056E057F0508F080E026960FB6F89404
:103F0000DEBF0FBECDBFDF91CF911F910F91FF900C
:103F1000EF90DF90CF9008950F931F93CF93DF938F
:103F2000CDB7DEB72E970FB6F894DEBF0FBECDBF6C
:103F30008B011E861D86FC016081718182819381C7
:103F40006F83788789879A872FEF2B876038710571
:103F50008105910538F48FE39FE00E94F98881E0A4
:103F600090E02FC09E01235F3F4FAE01495F5F4F3E
:103F700069EB70E08EEC9AE00E94DC8A97FD2CC021
:103F80008D859E8526E0289FB001299F700D112404
:103F90006253754F46E050E0CE0101960E943EC448
:103FA0006D818FE39FE00E94F98801301105B9F21D
:103FB0006E816623A1F28FE39FE00E94F98882E080
:103FC00090E02E960FB6F894DEBF0FBECDBFDF9106
:103FD000CF911F910F9108959E01235F3F4FAE0136
:103FE000495F5F4F63E670E08CE798E00E94DC8AEF
:103FF00097FD0BC08D859E8526E0289FB001299FE7
:10400000700D11246458774FC5CF6FE3A4CF809112
:10401000B5029091B602009731F04AE050E070E0AE
:1040200060E00C9436C360E070E0CB0108958091AD
:10403000B5029091B602009731F04AE050E070E08E
:1040400060E00C940BC260E070E0CB010895EFDFFC
:10405000CB010895ECDF97FD0AC0E9DF6F3F7105E2
:104060008105910509F02CF4E2DF862F089580E0A8
:1040700008958FEF08958091B5029091B602892B33
:1040800039F0E8DF91E0811101C090E0892F0895B7
:1040900091E0FCCFCF93DF93C82FD62FA7DB8823E7
:1040A00019F0DF91CF91E7CF8C2F29DB811101C06F
:1040B0008D2FDF91CF9108950F931F93CF93809110
:1040C000B5029091B602009709F1FC018F01C191F0
:1040D0002C2F2F7DA1F0C53431F0C53621F0C83525
:1040E00011F0C83799F7F801108270E060E00E9483
:1040F000B6C0F801C083CF911F910F91089570E071
:1041000060E0CF911F910F910C94B6C060E070E019
:10411000CB01F1CFCF9380915D0EC1E08823C9F030
:1041200080915E0E90915F0E4091550E5091560E0B
:104130006091570E7091580EDC01ED91FC91028850
:10414000F389E02D25E53CE00995C82F811104C0D5
:10415000C0E08C2FCF9108954091590E50915A0E86
:1041600060915B0E70915C0E411551056105710502
:10417000B9F080915E0E90915F0EDC01ED91FC91A3
:104180000288F389E02D25E53CE00995882301F3B9
:104190001092590E10925A0E10925B0E10925C0EF5
:1041A00010925D0ED6CFCF93DF93EC018B818823E5
:1041B00039F1898187FF21C061E0CE0156DBFC0126
:1041C000892BF1F08081853ED9F08B81823040F4DB
:1041D00089899A89AB89BC89848F958FA68FB78F7F
:1041E0008D899E89938F828F8D899E89AF89B88DA5
:1041F000B58BA48B89818F778983DF91CF918ACF0B
:1042000081E0888380E0DF91CF9108958F929F9223
:10421000AF92BF92CF92DF92EF92FF920F931F93D4
:10422000CF93DF93EC018B8181110EC080E0DF9191
:10423000CF911F910F91FF90EF90DF90CF90BF90A3
:10424000AF909F908F90089509891A892B893C8996
:10425000041715072607370748F34A015B01823028
:1042600031F488869986AA86BB8681E0E0CF8114E6
:104270009104A104B10449F4188619861A861B8694
:104280001C821D821E821F82F0CF088519852A8517
:104290003B85E98DFA8D858590E00996B901A801E5
:1042A0004150510961097109082E04C0769567953E
:1042B000579547950A94D2F775016401E1E0CE1A4B
:1042C000D108E108F10804C0F694E794D794C794A4
:1042D0008A95D2F7C416D506E606F70620F0012B1C
:1042E000022B032B11F58D899E89AF89B88D8C83A4
:1042F0009D83AE83BF838E010C5F1F4FC114D10419
:10430000E104F10409F4ADCF4C815D816E817F81C0
:104310009801898D9A8D0E94119A91E0C91AD1084D
:10432000E108F1088111EACF81CFC41AD50AE60A63
:10433000F70AE1CF2F923F924F925F926F927F9256
:104340008F929F92AF92BF92CF92DF92EF92FF92A5
:104350000F931F93CF93DF93EC014B017A018B8175
:10436000811115C08FEF9FEFDF91CF911F910F91BA
:10437000FF90EF90DF90CF90BF90AF909F908F9085
:104380007F906F905F904F903F902F90089589811C
:1043900080FFE8CF89899A89AB89BC89488559858E
:1043A0006A857B85841B950BA60BB70BA70170E074
:1043B00060E084179507A607B70708F47C0167013A
:1043C0001E0124E0220E311CC114D10409F4A9C03D
:1043D000488559856A857B855A0181E0B822898D97
:1043E0009A8D2A013B0129E076946794579447946B
:1043F0002A95D1F72B81FC01223081F5628D738DD6
:10440000848D958D640D751D861D971D00E012E04D
:104410000A191B09C016D10608F486010115E2E04D
:104420001E0771F44090550E5090560E6090570E36
:104430007090580E641575058605970509F04EC0F5
:1044400040E00E948A97882309F48CCFB5016B5A0B
:10445000734FA801C4010E94A2CB52C01481115015
:104460001421A114B10471F411110CC0452B462B79
:10447000472B51F58D899E89AF89B88D8C839D839B
:10448000AE83BF83E98DFA8D4C805D806E807F8026
:1044900022E0421A510861087108858504C0440C65
:1044A000551C661C771C8A95D2F786859785A0894E
:1044B000B189480E591E6A1E7B1EC301B201610FED
:1044C000711D811D911DA2CF4C815D816E817F8107
:1044D00091010E94119A8111D5CF44CFA0915E0E17
:1044E000B0915F0EED91FC9111970088F189E02D5C
:1044F0009401AB01BC01CD010995882309F432CFA9
:10450000800E911E88859985AA85BB85800F911F95
:10451000A11DB11D88879987AA87BB87C01AD10AB8
:1045200053CFC70121CF0F931F93CF93DF93FC018C
:104530002381222331F080E0DF91CF911F910F91F1
:1045400008958B01EC01FB018789803139F582E008
:104550008B831D8A1E8A1F8A188E808D918DB0E0F4
:10456000A0E025E0880F991FAA1FBB1F2A95D1F74D
:10457000898B9A8BAB8BBC8B1A8F098F81E08983D7
:10458000188619861A861B861C821D821E821F822F
:10459000188A1C861D861E861F86CECF803259F64D
:1045A00083E08B83428D538D648D758D4D8B5E8B37
:1045B0006F8B788F9E012F5E3F4FC8010E94259B15
:1045C0008111DACFB8CFCF93DF93EB01FC012381C8
:1045D000211104C080E0DF91CF9108952250223054
:1045E00028F48FE28883198281E0F5CF60E03DD91D
:1045F000009781F3DC0160E080E09EE22D912032A3
:1046000099F0883031F49E01260F311DF901908315
:104610006F5F9E01260F311DAD0141505109FA0116
:104620004081F90140836F5F8F5F8B3039F7FE0166
:10463000E60FF11D1082D8CFCF93DF93EC01B3DDED
:104640001B82DF91CF9108953F924F925F926F92BC
:104650007F928F929F92AF92BF92CF92DF92EF9212
:10466000FF920F931F93CF93DF93CDB7DEB72C97B5
:104670000FB6F894DEBF0FBECDBF5C01DC015996CA
:104680008D909C90F40181859285A385B4859C01D1
:10469000AD012F5F3F4F4F4F5F4F29873A874B87C1
:1046A0005C87D50114964D905D906D907C90179726
:1046B000411451046104710409F459C0BFEF4B1A4D
:1046C0005B0A6B0A7B0A312C730162011D821E8218
:1046D0001F821886F40181859285A385B4852D817A
:1046E0003E814F815885281739074A075B0708F034
:1046F00056C089859A85AB85BC858C159D05AE0510
:10470000BF0550F482E0C82ED12CE12CF12C92E0B0
:10471000492E512C612C712C9E012F5F3F4FB70108
:10472000A601C4010E94119A8823C9F189819A8146
:10473000AB81BC81892B8A2B8B2B01F126013701A0
:104740009FEF491A590A690A790A2D813E814F81E2
:1047500058852F5F3F4F4F4F5F4F2D833E834F83D1
:1047600058873FEFC31AD30AE30AF30AB3CF408056
:1047700051806280738033243394A6CFC414D5044F
:10478000E604F70411F70FEF1FEF2FEF3FE0B7013B
:10479000A601C4010E948099782E81111AC0712C43
:1047A000872D2C960FB6F894DEBF0FBECDBFDF91DC
:1047B000CF911F910F91FF90EF90DF90CF90BF901E
:1047C000AF909F908F907F906F905F904F903F90B1
:1047D0000895F50144815581668177814115510520
:1047E0006105710539F097018601C4010E94809925
:1047F0008823A9F2D5011496CD92DD92ED92FC9218
:104800001797332051F0D701C6010196A11DB11DA4
:10481000F40180839183A283B383F501858996890E
:10482000A789B08D892B8A2B8B2B09F0B9CFC58A2C
:10483000D68AE78AF08E818180688183B1CF40E09B
:1048400050E0BA01E3CCFC0123812111F5CE08959B
:104850002F923F924F925F926F927F928F929F9290
:10486000AF92BF92CF92DF92EF92FF920F931F937E
:10487000CF93DF93CDB7DEB7C454D1090FB6F89408
:10488000DEBF0FBECDBF7C014B015A01222E198223
:104890001C821C8E1F8E6115710511F410E0AEC1D3
:1048A000DC0113968C918111F9CFFA0180818B0183
:1048B0008F32C9F4DB0113968C91139782508230AA
:1048C00058F059966D917C91CE014C962CDE8E015C
:1048D000045E1F4F882311F3C5015C010196F501A9
:1048E00020812F32D1F39E012F5F3F4F69012901B3
:1048F00030E2332E2496CFAE24972596DFAE25974F
:104900003E013CE1630E711C22963FAE2297219638
:104910003FAE21973FAE3EAE3DAE3CAE3BAE3AAE73
:1049200039AE38AE3FAA950190E047E0D9018D91AC
:10493000882361F18F3251F18E3239F44A3009F413
:10494000ADCF98E04AE09D01F1CFE9E0F8E1249194
:10495000222321F031968213FACFA0CF491708F411
:104960009DCF813208F49ACF8F3709F497CF3FE972
:10497000380F3A3108F420EEE7E3F0E0EC0FFD1FCA
:10498000E90FF11D820F80839F5FDDCF8FA98032F9
:1049900009F484CF5901D9018C912F5F3F4F8F3299
:1049A000C9F38823A1F00815190511F0C80144DEE8
:1049B00024969FAD249725968FAD25974C145D04C2
:1049C00011F4962D872D8601C92ED82E9DCFF80182
:1049D000818D928DD7015A969C938E935997C801D9
:1049E0002EDFC12CF80180859185A285B385418990
:1049F00052896389748984179507A607B70708F059
:104A000052C025E0B695A795979587952A95D1F739
:104A1000F82FFF70DF2ED80113968C91823008F4A6
:104A20003DCF41E050E0BE016E5B7F4FC80182DCAC
:104A3000019709F033CFF80180859185A285B38570
:104A40004F96A11DB11D80879187A287B387F0E2A1
:104A5000DF9EB00111246B5A734F6115710509F483
:104A60001DCFDB018C91882341F0853E09F04CC0BD
:104A7000CC2029F0CC24C394B5CFC1100EC08091B6
:104A8000550E9091560EA091570EB091580EF70109
:104A900084879587A687B787D08ADB018C9181119F
:104AA000E9CFCC24C394822D8274823409F0F6CEEF
:104AB000CC2009F4C4C0F701D08861E0C7010E948E
:104AC000351C009709F4EACE20E2DC011D922A95FC
:104AD000E9F72BE0FE01F796DC0101900D922A9593
:104AE000E1F721E238E2FC01318B208B40E058E015
:104AF00057874687338B228B318F208F578B468B7E
:104B000009DB81110AC0CACE4BE050E0CE01C79646
:104B10000E9495CB892B09F065CF2D2D30E0F9014E
:104B2000B5E0EE0FFF1FBA95E1F7DF01AB5AB34FC7
:104B30001B968C91817121F0822D827109F01CC12C
:104B4000D70159968D919C915A974091550E50914D
:104B5000560E6091570E7091580E1C964D935D93B2
:104B60006D937C931F975096DC925097EB5AF34FBE
:104B700084889588B12CA12C5401992488245596B9
:104B80008D929D92AD92BC925897428D538D70E05C
:104B900060E0482959296A297B2955964D935D93F0
:104BA0006D937C935897A5E0220F331FAA95E1F7E8
:104BB000D901AB5AB34F1B962C91287109F0CEC086
:104BC000848D958DA68DB78DF701818B928BA38BEC
:104BD000B48B81E08383822D8F70F70181831482EF
:104BE000158216821782108611861286138611E0AE
:104BF00024FE04C0C7010E94939A182FCE014C9640
:104C000022DECE0101961FDE812FCC5BDF4F0FB677
:104C1000F894DEBF0FBECDBFDF91CF911F910F91F2
:104C2000FF90EF90DF90CF90BF90AF909F908F90CC
:104C30007F906F905F904F903F902F900895D80194
:104C400013968C911397823009F428CE51968D914A
:104C50009D910D90BC91A02D803E9F4FAF41B1051D
:104C600008F01CCEC801F0DC882309F417CE52DA14
:104C7000882309F413CED8015996ED91FC915A97E7
:104C800014968D909D90AD90BC901797B2E08B1AC2
:104C90009108A108B108858504C0880C991CAA1C3C
:104CA000BB1C8A95D2F786859785A089B189880E25
:104CB000991EAA1EBB1E81E080935D0E8092550E48
:104CC0009092560EA092570EB092580EE5E5FCE079
:104CD00080E092E0DF019C011D9221503040E1F71D
:104CE000DD24D394D8015996ED91FC918481D81696
:104CF000C0F480915E0E90915F0EDC01ED91FC910D
:104D00000288F389E02D25E53CE0B501A4014D0DB5
:104D1000511D611D711D0995882309F4BFCDD394E0
:104D2000E1CF258580E092E0A0E0B0E004C0880FEC
:104D3000991FAA1FBB1F2A95D2F7F80141895289F2
:104D400063897489840F951FA61FB71F818B928B6F
:104D5000A38BB48B85E59CE0D12CB6CE203161F4D9
:104D600097012F5E3F4F0E94259B882329F084E006
:104D7000D70113968C932FCFD70113961C928ECD0B
:104D80000F930FB70F9300916E000D7F00936E008D
:104D900078940F930BB70F930CB70F921F922F932A
:104DA0003F934F935F936F937F938F939F93AF93B3
:104DB000BF93EF93FF9311240E949634FF91EF91DC
:104DC000BF91AF919F918F917F916F915F914F9123
:104DD0003F912F911F900F900CBF0F910BBF0F9120
:104DE0000260F89400936E000F910FBF0F91189519
:104DF000CF93DF93C3E0D4E0198618860E944F1C3E
:104E00001A865D98CCE4D4E0198618860E94261D87
:104E10001A865C98DF91CF9108958F929F92AF92FE
:104E2000BF92CF92DF92EF92FF920F931F93CF9397
:104E3000DF93B0E2A0E06A2F70E0AB014B0F511D91
:104E400055954795411119C0E7E8F9E165917491CD
:104E5000072E000C880B990B0E941BC5DF91CF9188
:104E60001F910F91FF90EF90DF90CF90BF90AF9088
:104E70009F908F900895B42FE0CFA41711F0B41332
:104E800003C0E3E0FAE1E2CF9A0121503109220F99
:104E9000331F220F331FF901EB57F64EE590F490C4
:104EA000F901E757F64EC591D4918E159F0518F379
:104EB000A42FC817D90708F4BECFF901E957F64E59
:104EC00005911491F901E557F64EC590D4908E19CD
:104ED0009F09BC0190E080E00E9419C54B015C0174
:104EE000B601601B710B072E000C880B990B0E94FA
:104EF0001BC59B01AC01C501B4010E947AC54B01E1
:104F00005C01CE19DF09BE0190E080E00E9419C566
:104F10009B01AC01C501B4010E9420CA6B017C0158
:104F2000B801110F880B990B0E941BC59B01AC01A6
:104F3000C701B6010E94A9C991CFBC012091CA0343
:104F40003091CB034091CA035091CB03241735070E
:104F500031F481E02617370709F080E008959A01BF
:104F6000F1CF0F930FB70F9300916E000F930D7F4A
:104F700000936E0000916F000D7F00936F000F9300
:104F80000BB70F930CB70F921F922F933F934F9332
:104F90005F936F937F938F939F93AF93BF93EF93A1
:104FA000FF93112441D3FF91EF91BF91AF919F9156
:104FB0008F917F916F915F914F913F912F911F90B2
:104FC0000F900CBF0F910BBF0F910260F8940093EC
:104FD0006F000F9100936E000F910FBF0F91189506
:104FE00000C000C080913C0480FF1FC045988FEF37
:104FF0008093810380913C0481FF1AC047988FEF12
:105000008093820380913C0482FF15C02A9A8FEF1F
:105010008093830380913C0483FF10C028988FEF16
:105020008093840300C000C00895459A81E0E0CFDA
:10503000479A81E0E5CF2A9881E0EACF289A81E07B
:10504000EFCF80918003982F977F90938003982FC4
:10505000937081E011F080E008955E9A08955E9863
:10506000809180038860809380030895E82FF0E0AA
:1050700021E030E0082E02C0220F331F0A94E2F72D
:105080002095309590918003922390938003E05077
:10509000FE4F2081922321E019F020E0822F089515
:1050A000813079F038F08230C9F7159A90913B043D
:1050B0009B7F04C05E9A90913B049E7F90933B043B
:1050C000EDCF5E9A90913B049D7FF8CF80E0CEDFDC
:1050D00081E0CCDF82E0CADFB4CF90912B0F8091CA
:1050E0002C0F981307C08091E3049091E404892B5E
:1050F00009F4ECCF0E947C9FF0CF813079F070F002
:10510000823071F021E030E001C0220F8A95EAF789
:1051100080918003822B8093800308955E98F2CF64
:105120001598F0CFCF93DF932091780321111DC004
:105130009091770391111AC0C0910F01D091100185
:10514000219720E030E040E05FE360910704709138
:1051500008048091090490910A040E94A9C90E9440
:1051600088CA21E06C177D070CF020E0822FDF91C8
:10517000CF91089590912B0F80912C0F981306C01A
:105180008091E3049091E404892B19F00E947C9FA4
:10519000F1CF08954F925F926F927F928F929F927C
:1051A000AF92BF92CF92DF92EF92FF920F931F9335
:1051B000CF93DF93CDB7DEB72E970FB6F894DEBF4F
:1051C0000FBECDBF9E878D875B018A01DC01D6961D
:1051D0006D917D918D919C91D9970E9419C56B011C
:1051E0007C01F50120813181428153810E947AC581
:1051F0000E940DCA4B015C01D8012D913D914D914A
:105200005C91C701B6010E947AC50E940DCA2B01AC
:105210003C01C501B4010E948DCA6D837E838F83DA
:105220009887683771058105910540F408E710E01B
:1052300020E030E00D831E832F833887C301B20145
:105240000E948DCA69837A838B839C83683771053A
:105250008105910540F428E730E040E050E02983E3
:105260003A834B835C83AD85BE8595968D909D90EA
:10527000AD90BC909897FD01EE5BFF4F608171810E
:1052800082819381611571058105910509F4D7C06B
:105290000E941BC59B01AC0160E070E080E89FE3C9
:1052A0000E9420CA20E030E040E05FE30E947AC51F
:1052B0002B013C01A7019601C701B6010E947AC5E6
:1052C0006B017C0169817A818B819C810E9419C567
:1052D0009B01AC010E947AC59B01AC01C701B601DC
:1052E0000E94A8C9A30192010E947AC569877A87A2
:1052F0008B879C876D817E818F8198850E9419C5DF
:105300009B01AC010E947AC59B01AC01C701B601AB
:105310000E94A8C9A30192010E947AC52B013C01F9
:105320000E940DCA0E948DCA6B017C0169857A8535
:105330008B859C850E94B9CA0E948DCADC01CB0175
:10534000B701A601480F591F6A1F7B1F95018401F1
:10535000041B150B260B370BB901A80177FF35C0CD
:10536000C501B4010E9419C5A30192010E94A9C9F7
:1053700029853A854B855C850E94A8C920E030E0EC
:1053800040E05FE30E947AC50E940DCA6B017C0178
:1053900020E030E0A9010E940CCB18161CF0C12CB3
:1053A000D12C7601C701B6010E948DCA6B017C0128
:1053B0008C149D04AE04BF0410F475016401D50182
:1053C000C4018C199D09AE09BF09ED85FE85C1A6F2
:1053D000D2A6E3A6F4A695018401081B190B2A0B9B
:1053E0003B0BD901C80185A796A7A7A7B0AB0D8134
:1053F0001E812F81388502AF13AF24AF35AFFE96E3
:1054000009811A812B813C8100831183228333839C
:105410002E960FB6F894DEBF0FBECDBFDF91CF91B1
:105420001F910F91FF90EF90DF90CF90BF90AF90C2
:105430009F908F907F906F905F904F90089580E045
:1054400090E0DC01C12CD12C7601BFCF90916F0090
:1054500081E091FD02C080E0089590916F009D7FF2
:1054600090936F000895EFE6F0E080818260808382
:105470000895CF93C82FEADF94E0C99F90011124CB
:10548000F901E353FC4F27523C4FD9014D915D91F7
:105490006D917C91408351836283738391E09093FB
:1054A000CC03882311F0CF91DECFCF910895CF9315
:1054B000DF9380913A04882309F452C08091490314
:1054C000329948C0816080934903809149033399A0
:1054D00043C08260809349038091490334993EC060
:1054E000846080934903C091BD03C0FF0FC08091C9
:1054F0003C0480FF0BC08091490380FF07C080916E
:105500008B04816080938B0480E0B3DFC1FF0FC008
:1055100080913C0481FF0BC08091490381FF07C04B
:1055200080918B04826080938B0481E0A2DFC2FFB4
:1055300017C080913C0482FF13C08091490382FF11
:105540000FC080918B04846080938B0482E0DF9194
:10555000CF918FCF8E7FB7CF8D7FBCCF8B7FC1CFC9
:10556000DF91CF91089572DF1092CE041092CF0494
:105570001092D0041092D104811175CF08950F9329
:105580001F9380912B0F90912C0F891B8F7009F422
:1055900049C09091280F992361F0833040F48FEF38
:1055A000890F29F08093280F90E080E038C0109296
:1055B000280F80912C0F2BE4829FC0011124825D63
:1055C0009A4FFC01208120FDEFCF4091CE045091F5
:1055D000CF046091D0047091D104E95BFF4F00814A
:1055E000118122813381401B510B620B730B40935D
:1055F000CE045093CF046093D0047093D1042091D3
:105600002C0F2F5F2F702093290F30912C0F20919A
:105610002A0F321304C02091290F20932A0F1F91C3
:105620000F910895A0DFC0CF2F923F924F925F92CB
:105630006F927F928F929F92AF92BF92CF92DF92A2
:10564000EF92FF920F931F93CF93DF9300D01F929F
:10565000CDB7DEB78FEF9FEF9093890080938800DE
:105660000AE00983312C212C78948091C603909113
:10567000C703A091C803B091C903892B8A2B8B2B38
:1056800009F0CCC18091CC038823D1F08091CA036A
:105690009091CB031092CC03892B91F01092CB0305
:1056A0001092CA031092BD0390912B0F80912C0F82
:1056B000981731F080912C0F8F5F8F7080932C0F93
:1056C0008091CA039091CB03892B09F4A7C1409123
:1056D000C2035091C3036091C4037091C5038091CC
:1056E000BE039091BF03A091C003B091C1034817BE
:1056F00059076A077B0708F091C100914B0410E03D
:1057000030E020E0841B950BA60BB70B0817190798
:105710002A073B0710F4D901C8018A83840F951F1B
:10572000A61FB71F8093C2039093C303A093C40323
:10573000B093C503E1E0C0908903D0908A03E09064
:105740008B03F0908C038091990390919A03A09120
:105750009B03B0919C03C80ED91EEA1EFB1EC0928B
:105760009903D0929A03E0929B03F0929C03F7FC7A
:1057700018C08091850390918603A0918703B09112
:105780008803A7019601281B390B4A0B5B0BDA0132
:10579000C9018093990390939A03A0939B03B093BC
:1057A0009C0300918D0310918E0320918F03309103
:1057B000900380919D0390919E03A0919F03B091CF
:1057C000A003080F191F2A1F3B1F00939D0310936E
:1057D0009E0320939F033093A00337FD18C0809150
:1057E000850390918603A0918703B0918803B90146
:1057F000A801481B590B6A0B7B0BDB01CA01809384
:105800009D0390939E03A0939F03B093A0034091A8
:10581000910350919203609193037091940380914E
:10582000A1039091A203A091A303B091A403480FF8
:10583000591F6A1F7B1F4093A1035093A2036093DB
:10584000A3037093A40377FD18C080918503909102
:105850008603A0918703B09188032A013B01481A6F
:10586000590A6A0A7B0AD301C2018093A10390936B
:10587000A203A093A303B093A403809095039090F8
:105880009603A0909703B09098038091A503909100
:10589000A603A091A703B091A803880D991DAA1D86
:1058A000BB1D8093A5039093A603A093A703B09379
:1058B000A803B7FD18C08090850390908603A09040
:1058C0008703B09088032C013D01481859086A08E5
:1058D0007B08530142018092A5039092A603A092F7
:1058E000A703B092A803E11104C0E0918400F091F5
:1058F0008500F7FC1CC040908103042C000C550867
:10590000660877088090D9039090DA03A090DB03B3
:10591000B090DC03840C951CA61CB71C8092D903A4
:105920009092DA03A092DB03B092DC035F9A37FD1A
:105930001CC040908203042C000C550866087708B0
:105940008090DD039090DE03A090DF03B090E00331
:10595000840C951CA61CB71C8092DD039092DE037C
:10596000A092DF03B092E003469A77FD1CC04090FE
:105970008303042C000C5508660877088090E10327
:105980009090E203A090E303B090E403840C951C94
:10599000A61CB71C8092E1039092E203A092E3035D
:1059A000B092E4032B9AB7FD1CC040908403042CF2
:1059B000000C5508660877088090E5039090E60390
:1059C000A090E703B090E803840C951CA61CB71CBC
:1059D0008092E5039092E603A092E703B092E80379
:1059E000299AE0918400F0918500E0918400F09183
:1059F0008500F7FE5F9837FF469877FF2B98B7FF33
:105A000029985A80552021F080918400909185003A
:105A10000A8101500A83E0E001118DCE8091C60316
:105A20009091C703A091C803B091C903892B8A2B19
:105A30008B2B09F062C1E091CA03F091CB03309740
:105A400009F4DCC28091C2039091C303A091C40306
:105A5000B091C5034091BE035091BF036091C00354
:105A60007091C10384179507A607B70708F491C181
:105A70001092CB031092CA031092BD0390912B0F8A
:105A800080912C0F981709F4B9C280912C0F8F5F69
:105A90008F7080932C0F30EDC32E37E0D32EE12C86
:105AA000F12C8091CA039091CB03892B09F01DC181
:105AB00066DD9093CB038093CA03892B09F415C14B
:105AC0006090CA037090CB037B826A82D3018C9171
:105AD00083FD77C255968D909D90AD90BC90589760
